S01700004763634170706C69636174696F6E312E737265635B
S11300000C9434000C9451000C9451000C94510045
S11300100C943E060C9451000C9451000C94510025
S11300200C9451000C9451000C9451000C94870FC3
S11300300C9451000C9451000C9451000C945100F8
S11300400C9451000C9451000C9451000C945100E8
S11300500C9451000C9451000C9451000C945100D8
S11300600C9451000C94510011241FBECFEFD8E022
S1130070DEBFCDBF12E0A0E0B1E0E2ECF8E202C0E6
S113008005900D92A031B107D9F722E0A0E1B2E0CA
S113009001C01D92A437B207E1F70E94E00F0C944F
S11300A05F140C9400004EE003C04CE001C04AE031
S11300B02F923F924F925F926F927F928F929F9274
S11300C0AF92BF92CF92DF92EF92FF920F931F9362
S11300D0CF93DF938F939F93DB01FC01842FE894EC
S11300E081909190A190B190C190D190E190F190C4
S11300F001911191219131914191519161917191AC
S11301009BE1F4E00D9080240D9090240D90A024A8
S11301100D90B0240D90C0240D90D0240D90E024B7
S11301200D90F0240D9000250D9010250D902025A4
S11301300D9030250D9040250D9050250D90602593
S11301400D9070252EF5FF91EF9181929192A192DD
S1130150B192C192D192E192F192019311932193C0
S113016031934193519361937193DF91CF911F9197
S11301700F91FF90EF90DF90CF90BF90AF909F9042
S11301808F907F906F905F904F903F902F90089545
S11301908A9509F46894E82D8490EC2DC490E02F9E
S11301A00491E42F4491E92D2490ED2D9490E12FB6
S11301B0D490E52F1491522DEA2D2490EE2D3490F5
S11301C0E22FA490E62FE490222D632DEB2D2490B2
S11301D0E72FB490E32F7491EF2D3491F22C0EF4A9
S11301E091CF0A2C0B24402C282C89240824880C19
S11301F008F4892680248224392C3A24330C08F408
S1130200392630249324440C08F449264024A42499
S11302102B24220C08F429262024B2240E2C0F248B
S1130220402C2C2CCD240C24CC0C08F4C926C0243E
S1130230C2243D2C3E24330C08F439263024D32424
S1130240440C08F449264024E4242F24220C08F406
S113025029262024F224022E0326402C202E0127B6
S11302600026000F08F4092700250225312E322626
S1130270330C08F4392630241325440C08F4492699
S1130280402424252326220C08F429262024322560
S1130290062E0726402C242E45270426440F08F456
S11302A0492740254225352E3626330C08F43926B5
S11302B030245325440C08F4492640246425272679
S11302C0220C08F42926202472251CCFAB0171E0EE
S11302D060E007C0AB0170E060EC03C0AB017727BE
S11302E060E8EF92FF920F931F93CF93DF93FA018D
S11302F0EA01DC017695679566956695262F0D9043
S113030001922A95E1F76695669563FB362F762F61
S1130310795F770F770FDF011497262FE0E0F4E081
S11303207F0111E04D915D918D919D913217B1F056
S11303305EF5022F0770043039F5F701E40FF11D63
S11303404491F701E50FF11D5491F701E80FF11DF8
S11303508491F701E90FF11D949116C0360FF7014E
S1130360E40FF11D0491F701E50FF11D4491F7012C
S1130370E80FF11D5491F701E90FF11D8491902FBD
S11303804127110F08F41BE1FD0109900426019295
S113039009900526019209900826019209900926E0
S11303A001922395271709F0BDCFE894DF91CF91EF
S11303B01F910F91FF90EF9008950000000000003E
S11303C00000000000000000000000000000000029
S11303D00000000000000000000000000000000019
S11303E00000000000000000000000000000000009
S11303F000000000000000000000000000000000F9
S1130400637C777BF26B6FC53001672BFED7AB76CD
S1130410CA82C97DFA5947F0ADD4A2AF9CA472C078
S1130420B7FD9326363FF7CC34A5E5F171D83115E5
S113043004C723C31896059A071280E2EB27B27506
S113044009832C1A1B6E5AA0523BD6B329E32F847E
S113045053D100ED20FCB15B6ACBBE394A4C58CF76
S1130460D0EFAAFB434D338545F9027F503C9FA84A
S113047051A3408F929D38F5BCB6DA2110FFF3D218
S1130480CD0C13EC5F974417C4A77E3D645D1973CC
S113049060814FDC222A908846EEB814DE5E0BDBC6
S11304A0E0323A0A4906245CC2D3AC629195E479FD
S11304B0E7C8376D8DD54EA96C56F4EA657AAE0857
S11304C0BA78252E1CA6B4C6E8DD741F4BBD8B8AF2
S11304D0703EB5664803F60E613557B986C11D9E58
S11304E0E1F8981169D98E949B1E87E9CE5528DFCF
S11304F08CA1890DBFE6426841992D0FB054BB16FB
S1130500ECE6F0E0808188638083E8E6F0E08081B7
S11305108260808388B1886388B9089580911402C9
S1130520893099F480911F02823031F410921202C2
S113053083E080931402089580911F02813009F0B2
S11305403FC087E0809314020895809114028A309A
S113055091F480911F02823031F41092120284E0EF
S113056080931402089580911F02813049F588E038
S113057080931402089580911402833039F4809199
S11305801F028230E9F0109214020895809114023F
S1130590843039F480911F02823091F01092140259
S11305A0089580911402863021F48AE08093140225
S11305B0089580911402853019F489E0809314021F
S11305C0089580911402811115C0809122029091A6
S11305D02302039721F481E08093140263C0809185
S11305E02102882309F45EC010921D0286E08093E4
S11305F0140258C080911402813011F580912202B6
S113060090912302039721F482E0809314024AC05C
S11306108091220290912302019731F48091120279
S11306208F5F809312023EC0809122029091230238
S11306300297C1F58091120281508093120232C058
S1130640809114028230A1F48091220290912302BD
S1130650039719F41092140225C080912102882373
S113066009F181E080931D0285E0809314021AC091
S113067080911402873051F48091220290912302D8
S1130680892B81F082E0809314020CC080911402C3
S1130690883041F48091220290912302892B11F039
S11306A0109214021092230210922202089580954F
S11306B0682360FF06C022E030E0309323022093D9
S11306C0220261FF06C023E030E03093230220932E
S11306D0220262FF06C081E090E09093230280939F
S11306E022020E944C09892B71F4109216020E9476
S11306F0500C892B21F410922302109222020E94A2
S1130700E1020E945C0C0895662341F0282FE82F33
S1130710F92F11928E2F821B8617D8F30895FF921A
S11307200F931F93CF93DF93EC018B01F42E68ECAE
S1130730C8010E94840318861D830C83FE821F82D5
S11307401882DF91CF911F910F91FF9008950F931D
S11307501F93CF93DF93413091F4C62FD72FFC0121
S11307602DE630E0DF014191440F342B3F73399380
S11307703C9136FB332730F92150A1F721C0DC012D
S11307801196EC01E62FF72F1DE64D910991242FC8
S1130790217030E0A9010024569547950794569599
S11307A047950794542F402D502F5695452B419330
S11307B0115059F705C091919D938150E1F705C0FF
S11307C0E62FF72FDC018DE6F6CFDF91CF911F9155
S11307D00F910895DF92EF92FF920F931F93CF939F
S11307E0DF93FC010FE4EE24E394C0E0D0E0FF24A7
S11307F0F394D12C1CC0AB01022E02C05595479531
S11308000A94E2F740FD1F5F2F5F3F4F263031050A
S113081091F72C913196322F329536953695337067
S113082011703113ED2C2F3141F0015031F0DF0103
S1130830608170E09E011F2DDECFFC0120812534F4
S113084041F48181823639F481E0E11005C080E011
S113085003C080E001C080E0DF91CF911F910F9130
S1130860FF90EF90DF900895CF93DF93CDB7DEB77D
S1130870C45FD1400FB6F894DEBF0FBECDBFFC01FC
S11308803781332389F04481DE011196642F758109
S1130890FB018191BF018F73805E8D93CD012E2F5B
S11308A0241B2317A8F302C0CE0101962AE0FC0101
S11308B020838FE4FE013196A4E2B2E001900D9210
S11308C08A95E1F7CC50DE4F0FB6F894DEBF0FBE29
S11308D0CDBFDF91CF9108954F925F927F928F9217
S11308E09F92AF92BF92CF92DF92EF92FF920F93BB
S11308F01F93CF93DF93CDB7DEB7CA59D1400FB65C
S1130900F894DEBF0FBECDBF48ECBE016F5F7F4FD2
S1130910CE0187539F4F0E948F0381E0C653DF4F60
S11309208883CA5CD04082E0C553DF4F8883CB5CA8
S1130930D040C453DF4F8883CC5CD04087E0CE5294
S1130940DF4F8883C25DD040309910C110E000E0D1
S1130950A0E0B0E061E070E0FF24FA94EE24E394B8
S1130960412F50E0C353DF4FE881F981CD5CD04083
S1130970E40FF51F1082CD01C553DF4F3881CB5CE6
S1130980D040C653DF4FE881CA5CD04026B1232350
S113099019F026B12E23D1F3329912C0C353DF4F7D
S11309A0E881F981CD5CD040E40FF51F9B01082E4E
S11309B002C0220F331F0A94E2F73081232B2083D5
S11309C0C553DF4F3881CB5CD040C653DF4FE8813D
S11309D0CA5CD04026B1232319F426B12E23D1F3C7
S11309E001968730910541F611110FC0C353DF4FB3
S11309F088819981CD5CD040FC01E40FF51F808192
S1130A008111B8C00F5F1F2DBCC0043010F4115009
S1130A1010C0113071F4C353DF4F88819981CD5CCC
S1130A20D040FC01E40FF51F8081882309F4A7C09E
S1130A30A8C01F5F1F3408F493CFC353DF4FE8806F
S1130A40F980CD5CD040D7018C9180FD11C040E08D
S1130A50BE016D527F4FC7010E94A703C353DF4FEE
S1130A60E880F980CD5CD040F701808180FFEFCF32
S1130A70C7010E94EA03811162C08E010D521F4F0B
S1130A8048016E01F0ECCF1AFEEFDF0AF801119273
S1130A90EC15FD05E1F7D701A459BF4FF801A12CCE
S1130AA0B12C66E070E0EE24E394F12C20C04C916C
S1130AB050E09B01281B390B2A0102C0559447942E
S1130AC02A95E2F740FE0AC09701082E02C0220FC1
S1130AD0331F0A94E2F73081232B20830196873059
S1130AE0910529F711973196EC15FD0511F0C50113
S1130AF0DECFC80188199909C353DF4FE881F98112
S1130B00CD5CD040E80FF91FD8018D918D01808311
S1130B10AC15BD0571F706C040E0BE016D527F4FB4
S1130B200E94A703C353DF4F88819981CD5CD040D5
S1130B30FC01208120FFF0CF2181222369F3C353DC
S1130B40DF4F88819981CD5CD0400E94EA038823DD
S1130B5079F08DE6C053DF4F8883C05DD040CE016D
S1130B6087539F4F0E94340481E00DC080E00BC086
S1130B7080E009C0043008F44ACF1E2DF1CE1F2DA9
S1130B800E2D1F5FEDCEC656DE4F0FB6F894DEBFB6
S1130B900FBECDBFDF91CF911F910F91FF90EF90CA
S1130BA0DF90CF90BF90AF909F908F907F905F9099
S1130BB04F900895EF92FF920F931F93CF93DF937B
S1130BC0CDB7DEB7C05BD1090FB6F894DEBF0FBE58
S1130BD0CDBF84E292E00E946C0490912102892BA3
S1130BE0809321020E944C09892BD1F510921602A0
S1130BF080911402882349F02091140281E090E04E
S1130C00223029F080E090E002C081E090E09091F1
S1130C10210289238093210280912102882301F1FA
S1130C200E94E1020E945C0C10927302BE016F5F8D
S1130C307F4F84E091E00E946E0104E212E00F2EE7
S1130C40F4E7EF2EF2E0FF2EF02DBE016F5F7F4F31
S1130C50C8010E945700005F1F4F0E151F05A9F71A
S1130C60C055DF4F0FB6F894DEBF0FBECDBFDF9186
S1130C70CF911F910F91FF90EF9008951F920F92C3
S1130C800FB60F9211242F933F934F935F936F935B
S1130C907F938F939F93AF93BF93CF93DF93EF9300
S1130CA0FF93F894C6B1D0910001DC278091130220
S1130CB0813029F4D0FF03C0C0FF0E94DA05D87345
S1130CC0A1F08FEC97E00197F1F700C0000086B126
S1130CD086958695869587706091000166956695E0
S1130CE06695677068270E945703C0930001789443
S1130CF0FF91EF91DF91CF91BF91AF919F918F9130
S1130D007F916F915F914F913F912F910F900FBE03
S1130D100F901F901895ECE6F0E08081816080834D
S1130D20E8E6F0E080818260808388B1876088B9DA
S1130D30089588B1887F88B9089528E030E0882331
S1130D4014F05A9801C05A9A880F5B9A92E09A95C7
S1130D50F1F700C05B985A982150310981F75898EF
S1130D60599A82E08A95F1F700C0599887EC90E08F
S1130D700197F1F700C000005B985A985898599869
S1130D80089528E030E0882314F05A9801C05A9A54
S1130D90880F5B9A92E09A95F1F700C05B98215016
S1130DA0310989F7589A599A82E08A95F1F700C077
S1130DB0599887EC90E00197F1F700C000005B9828
S1130DC05A985898599808958FE493EC0197F1F73D
S1130DD000C000008AB18F608AB959988FE097E209
S1130DE00197F1F700C0000088E30E949D068FE0A0
S1130DF097E20197F1F700C000008CE00E949D0685
S1130E0081E00E949D068FE99FE00197F1F700C001
S1130E1000000895CF93DF9300D000D0CDB7DEB7A4
S1130E2090E8998390EC9A8394E99B8394ED9C8356
S1130E30FE01E80FF11D80810E949D0687EC90E081
S1130E400197F1F700C000000F900F900F900F90E2
S1130E50DF91CF9108950F931F93CF93DF93062FC4
S1130E60C82FD92F10E0101720F488810E94C106E2
S1130E7003C080E20E94C1061F5F2196103199F7DA
S1130E80DF91CF911F910F910895CF92DF92EF924E
S1130E90FF920F931F93CF93DF938C01EB01FA0121
S1130EA040911B0220911C0230E0A4E6B0E00E94B5
S1130EB02D116B017C01C40ED11CE11CF11CA70196
S1130EC09601DF010E9439112CE330E040E050E04C
S1130ED00E940B11CA01B90124E630E040E050E061
S1130EE00E940B11F80120836883DF91CF911F9139
S1130EF00F91FF90EF90DF90CF900895CF93DF9301
S1130F00EC01FB014091120250E0CA01880F991FC5
S1130F10880F991F480F591F9A01A9E8B8E80E9441
S1130F202D119C0136952795329522952F702327F4
S1130F303F70232728836CE3629FC001639F900D59
S1130F401124481B590B4083DF91CF9108950F93CF
S1130F501F93CF93DF93CDB7DEB764970FB6F894A2
S1130F60DEBF0FBECDBF8091140281112FC081E07E
S1130F700E940A076AE084E191E00E942B0782E064
S1130F800E940A0790911B0280911C021F929F935A
S1130F901F928F938FE191E09F938F938E010F5F48
S1130FA01F4F1F930F930E945811F80101900020C6
S1130FB0E9F73197BF01601B710BC8010E942B0731
S1130FC00FB6F894DEBF0FBECDBF48C180911402A6
S1130FD0813009F058C00E940A078091120290E003
S1130FE0AC01440F551F440F551F480F591FBE0134
S1130FF06E5E7F4FCE0141960E9445078A891F92FB
S11310008F9389891F928F938FE191E09F938F93A0
S11310108E010F5F1F4F1F930F930E945811F80109
S113102001900020E9F73197BF01601B710BC801E3
S11310300E942B0782E00E940A07BE016C5E7F4F6C
S1131040CE0143960E947E078C891F928F938B89D1
S11310501F928F938DE291E09F938F931F930F9331
S11310600E945811F80101900020E9F73197BF015F
S1131070601B710BC8010E942B070FB6F894DEBFEA
S11310800FBECDBFEBC080911402823089F481E0A1
S11310900E940A076AE084E191E00E942B0782E043
S11310A00E940A076FE08AE391E00E942B07D6C0F2
S11310B080911402833079F581E00E940A079091AF
S11310C01702809118021F929F931F928F938DE2B3
S11310D091E09F938F938E010F5F1F4F1F930F9388
S11310E00E945811F80101900020E9F73197BF01DF
S11310F0601B710BC8010E942B0782E00E940A0743
S113110060E08EEA91E00E942B070FB6F894DEBFF0
S11311100FBECDBFA3C080911402843009F054C027
S113112081E00E940A0790911702809118021F9291
S11311309F931F928F938DE291E09F938F938E01E3
S11311400F5F1F4F1F930F930E945811F8010190D6
S11311500020E9F73197BF01601B710BC8010E94A1
S11311602B0782E00E940A0780911802409117021F
S113117050E09CE3899F400D511D1124BE016E5E19
S11311807F4FCE0141960E9445078A891F928F9313
S113119089891F928F938AE491E09F938F931F9381
S11311A00F930E945811F80101900020E9F731973C
S11311B0BF01601B710BC8010E942B070FB6F89486
S11311C0DEBF0FBECDBF4AC080911402873089F4C0
S11311D081E00E940A076DE088E591E00E942B07F8
S11311E082E00E940A076EE086E691E00E942B07E7
S11311F035C080911402883089F481E00E940A0786
S11312006DE088E591E00E942B0782E00E940A07C6
S11312106EE086E691E00E942B0720C080911402C4
S11312208A3061F080911402893041F08091140277
S1131230863021F080911402853081F481E00E948F
S11312400A076FE085E791E00E942B0782E00E9485
S11312500A0760E08EEA91E00E942B0764960FB6BD
S1131260F894DEBF0FBECDBFDF91CF911F910F91D8
S11312700895569A089583E884BD84E085BD8091DD
S1131280200287BD089515BC14BC089580932002E4
S113129087BD08952E9A089583B186FB882780F927
S11312A090E00895EF92FF920F931F93CF93DF93F3
S11312B0CDB7DEB760970FB6F894DEBF0FBECDBFD3
S11312C00E940C0F8091220290912302039709F44B
S11312D04CC00F2EF3E9EF2EF1E0FF2EF02D8E011E
S11312E00F5F1F4F10922302109222020E94200FC0
S11312F081E00E940A076DE085E891E00E942B07D7
S11313000E94780FE0911002F0E0EF5FFE4F9081B1
S11313101F928F931F929F93FF92EF921F930F93AD
S11313200E94581182E00E940A07F80101900020EF
S1131330E9F73197BF01601B710BC8010E942B07AD
S11313402FEF39E688E1215030408040E1F700C0BA
S1131350000080912202909123020FB6F894DEBF20
S11313600FBECDBF039709F0BDCF10922302109298
S1131370220260960FB6F894DEBF0FBECDBFDF9198
S1131380CF911F910F91FF90EF900895DF92EF920C
S1131390FF920F931F93CF93DF93CDB7DEB7609780
S11313A00FB6F894DEBF0FBECDBF0E948B069E0120
S11313B02F5F3F4F8E010F5E1F4FF90180E2819333
S11313C0E017F107E1F780E090E040E2FC01EC5D1A
S11313D0FD4F408301968F349105C1F7809122021D
S11313E090912302039709F441C0F12CE22ED32EED
S11313F0109223021092220280912102882319F074
S113140010922102F12CFE013296AE2DBD2D819158
S11314108D930E171F07D9F7EF2DF0E0EC5DFD4F0C
S11314208081888BF3942FE4F21201C0F12C81E0C7
S11314300E940A0769E08AE991E00E942B0782E092
S11314400E940A0760E1CE0101960E942B078FEFEC
S113145094E32CE0815090402040E1F700C000006C
S11314608091220290912302039711F61092230295
S11314701092220260960FB6F894DEBF0FBECDBF65
S1131480DF91CF911F910F91FF90EF90DF9008951E
S1131490EF92FF920F931F93CF93DF93062F10E0E9
S11314A0101611066CF54F5F5F4FE82FF92F80E09F
S11314B090E0EF01208122952F7030E02A30310531
S11314C01CF0295C3F4F02C0205D3F4F7A01BA01F6
S11314D061507109DB012C93319628812F7030E023
S11314E02A3031051CF0295C3F4F02C0205D3F4F7C
S11314F0D7012C9301964E5F5F4F80179107CCF272
S1131500DF91CF911F910F91FF90EF900895AF92CB
S1131510BF92CF92DF92EF92FF920F931F93CF93DC
S1131520DF93CDB7DEB7DA950FB6F894DEBF0FBE02
S1131530CDBFEDB6FEB60E94790D10922302109233
S113154022020F2EF7EEDF2EF02DCC24CA94D9827E
S1131550DA82DB82DC82DD82CE0101960E941C0DE0
S113156081E00E940A076AE084EA91E00E942B0766
S1131570C050DF4FC882C050D140BE017395CE0128
S113158001960E942C0E8111E2CFADB6BEB682E068
S11315900E940A07C050DF4F6881C050D140862F97
S11315A090E0880F991F2DB73EB7281B390B0FB653
S11315B0F8943EBF0FBE2DBF0DB71EB70F5F1F4F70
S11315C0402F512FCE0101960E94480AC050DF4F90
S11315D06881C050D140660F802F912F0E942B0745
S11315E0CE0101960E941C0D81E00E940A076CE066
S11315F08FEA91E00E942B071FC0BE017395CE01B4
S113160001960E942C0E811117C081E00E940A07E6
S11316106BE08CEB91E00E942B0745E050E060E02A
S113162070E0CE0101960E9466138091220290918F
S113163023020397D1F712C08091220290912302D2
S1131640892BD9F210922302109222028A2D9B2D0B
S11316500FB6F8949EBF0FBE8DBF79CF10922302B0
S1131660109222020FB6F894FEBE0FBEEDBED395C3
S11316700FB6F894DEBF0FBECDBFDF91CF911F919F
S11316800F91FF90EF90DF90CF90BF90AF900895AF
S1131690CF93DF93CDB7DEB76A970FB6F894DEBF6A
S11316A00FBECDBF45E050E060E070E0CE01019692
S11316B00E945613AE014F5E5F4F65E0CE01019666
S11316C00E94480A8091220290912302039719F103
S11316D0109223021092220281E00E940A0762E023
S11316E08CEA91E00E942B0782E00E940A076AE0DC
S11316F0CE0141960E942B072FEF89E698E12150F5
S113170080409040E1F700C0000080912202909157
S113171023020397E9F610922302109222026A969A
S11317200FB6F894DEBF0FBECDBFDF91CF91089501
S11317300E9480020E945C0C0E94E406789410923D
S1131740230210922202C0E0D0E003E010E001C0C6
S1131750E8018091220290912302019771F4109282
S11317602302109222022196C370D078DD238CF7D5
S11317702197CC6FDF6F2196ECCF8091220290915C
S11317802302029739F41092230210922202219725
S113179000F7DECF80912202909123020397E1F4B7
S11317A01092230210922202209719F40E945209E7
S11317B0D0CFC130D10519F40E94C609CACFC230B6
S11317C0D10519F40E94870AC4CFC330D10509F0AA
S11317D0C0CF0E94480BBDCF209789F481E00E94BE
S11317E00A076BE088EC91E00E942B0782E00E94DC
S11317F00A076FE084ED91E00E942B07AACFC13065
S1131800D10589F481E00E940A076BE088EC91E03D
S11318100E942B0782E00E940A0760E184EE91E0B7
S11318200E942B0796CFC230D10589F481E00E9433
S11318300A076BE088EC91E00E942B0782E00E948B
S11318400A0769E085EF91E00E942B0782CFC3303D
S1131850D10509F07ECF81E00E940A076BE088EC95
S113186091E00E942B0782E00E940A076AE08FEF52
S113187091E00E942B076DCF279A089510921302CE
S113188080911F02823041F080911A0280931C02E1
S11318908091190280931B022F9A0E949906089541
S11318A083B1992787FD909580959095892F881FFE
S11318B08827881F90E008950E94500C892B61F4BA
S11318C081E0809313020E943C0C2F981092160220
S11318D00E94E4060E948B060E94A7070895809147
S11318E015028F5F8093150280911502863030F0C7
S11318F08EEF809315020E94430909C0809115025E
S113190080FF03C00E94430902C00E943B098091EA
S113191016028F5F8093160280911602863028F09B
S11319200E943E0C8EEF8093160208959AE19A95D8
S1131930F1F700C02A989AE19A95F1F700C08EBD9C
S11319400DB407FEFDCFE62FF72F80E02FEF2EBD5D
S11319500DB407FEFDCF9EB591938F5F8032B9F72A
S11319608AE18A95F1F700C02A9A9AE19A95F1F7EB
S113197000C008959AE19A95F1F700C02A989AE177
S11319809A95F1F700C08EBD0DB407FEFDCF6EBD74
S11319900DB407FEFDCF8AE18A95F1F700C02A9ABB
S11319A09AE19A95F1F700C008959AE19A95F1F7B2
S11319B000C02A989AE19A95F1F700C08EBD0DB443
S11319C007FEFDCFE62FF72F80E091919EBD0DB469
S11319D007FEFDCF8F5F8032C1F78AE18A95F1F768
S11319E000C02A9A9AE19A95F1F700C008959AE105
S11319F09A95F1F700C02A989AE19A95F1F700C0F8
S1131A008EBD0DB407FEFDCF442361F0962FE62F63
S1131A10F72F81918EBD0DB407FEFDCF8E2F891B4C
S1131A208417B8F38AE18A95F1F700C02A9A9AE1FB
S1131A309A95F1F700C00895CF93DF93EC0145E048
S1131A40BC018AE20E94F70C45E0BE0180E30E94DB
S1131A50F70CDF91CF9108959AE19A95F1F700C0C0
S1131A602A989AE19A95F1F700C08EBD0DB407FE4D
S1131A70FDCF8AE18A95F1F700C02A9A9AE19A95F6
S1131A80F1F700C08EB508959AE19A95F1F700C078
S1131A902A989AE19A95F1F700C08EBD0DB407FE1D
S1131AA0FDCF8AE18A95F1F700C02A9A9AE19A95C6
S1131AB0F1F700C0089529986FE080E20E94BA0C03
S1131AC060E787E20E94BA0C81EE0E94440D82EE28
S1131AD00E94440D8BE291E00197F1F700C00000F1
S1131AE0299A8FE19EE40197F1F700C0000029983C
S1131AF0089584B18E6284B92A9A81E58CBD8FE5FC
S1131B009AEE0197F1F700C0000062E085E20E94BE
S1131B10BA0C6FE084E20E94BA0C60E281E30E9496
S1131B20BA0C0895AF92BF92CF92DF92EF92FF92D8
S1131B300F931F93CF93DF93CDB7DEB7A0970FB664
S1131B40F894DEBF0FBECDBFF82FE92F462F6623D2
S1131B5009F46CC0262F30E0C9014C966DE170E0A9
S1131B600E94F710B62E6A838BE1489F812D1124C1
S1131B70942F981B9695890F982F92959F708DE1BD
S1131B80989F40191124841B8B83662309F450C049
S1131B90EF2EFE2EC12C8E010F5D1F4F6894AA24D8
S1131BA0A2F8C982D701FE0134968D918193E01782
S1131BB0F107D9F78DE1E80EF11CDA2C02C0DA94B2
S1131BC0C9F129986EE080E20E94BA0C60E787E2CE
S1131BD00E94BA0C82EE0E94440D81EE0E94440DD4
S1131BE08BE291E00197F1F700C00000BE016F5F46
S1131BF07F4F80EA0E94D50C8FE19EE40197F1F7B4
S1131C0000C00000299A95E39A95F1F700002998FD
S1131C108FEF0E942C0D982F9073D1F385FFCFCFB7
S1131C20C394CB1408F4BDCF80E005C085E003C0A5
S1131C3080E001C081E0A0960FB6F894DEBF0FBE2D
S1131C40CDBFDF91CF911F910F91FF90EF90DF9067
S1131C50CF90BF90AF9008954F925F926F927F9212
S1131C608F929F92AF92BF92CF92DF92EF92FF92A8
S1131C700F931F93CF93DF93CDB7DEB7A0970FB623
S1131C80F894DEBF0FBECDBF7C016B01912C812C7B
S1131C90A12CB12C712C0F2EFDE16F2EF02D5524AB
S1131CA053948E010F5D1F4F472C0E945B0D8FEFE5
S1131CB00E942C0D86FF0AC0BE016F5F7F4F81E634
S1131CC00E94960C23E0421207C063C0439433E0A1
S1131CD04312EBCF81E06EC0992021F081E098128D
S1131CE02BC020C0B980AA808B810F2EFFE18F2EDC
S1131CF0F02D8822ECE1E81508F44DC0A69C802D57
S1131D001124881608F049C08819F60190819817A3
S1131D1008F445C08083B11044C0AA2009F443C02C
S1131D20952C0AC02B2D30E02F5F3F4FB9808B2DAF
S1131D3090E028173907C9F5BA14C8F52B2D30E0FF
S1131D402F5F3F4F8A2D90E028173907B1F4FDE14A
S1131D508F1679F1FE013496D7018CE1881925E0BC
S1131D6030E02C0F3D1F280F311DC90121912D9307
S1131D70E817F907D9F780E01DC0FE013496D701B2
S1131D8081918D93E017F107D9F73DE1E30EF11C42
S1131D908BCF81E00FC086E00DC085E00BC082E0F0
S1131DA009C083E007C084E005C083E003C083E08A
S1131DB001C080E0A0960FB6F894DEBF0FBECDBF81
S1131DC0DF91CF911F910F91FF90EF90DF90CF9013
S1131DD0BF90AF909F908F907F906F905F904F9047
S1131DE00895CF93DF9300D000D01F92CDB7DEB714
S1131DF045E050E060E070E0CE0101960E94561389
S1131E00CE0101960E941C0D0F900F900F900F9021
S1131E100F90DF91CF910895209A5F9A08951092C0
S1131E2085001092840080E090E89093890080936C
S1131E30880082E080936F0084E08093810008959D
S1131E40289A2AE12A95F1F700C028981092850073
S1131E5010928400E1E8F0E0808182608083E4E80D
S1131E60F0E04F9905C08081918188359B41C8F38A
S1131E70E1E8F0E080818D7F8083109285001092EC
S1131E808400808182608083E4E8F0E04F9B05C099
S1131E908081918188359B41C8F3E1E8F0E080813D
S1131EA08D7F808380918400909185002091100221
S1131EB02F5F20931002309110022BEA329F212DC4
S1131EC011242695422F440F240F321B3093100205
S1131ED0E0911002F0E00024880F991F001C880F85
S1131EE0991F001C892F902DEF5FFE4F808308956A
S1131EF08091010190910201981710F480910201E0
S1131F0090910301981710F48091030108951F9292
S1131F100F920FB60F9211242F933F934F935F9319
S1131F206F937F938F939F93AF93BF93EF93FF939D
S1131F30F8940E946F0C109281000E94200F0E945E
S1131F40780F90911E02282F2B50293530F481E010
S1131F5080931E02109211020CC010921E028A304D
S1131F6030F481E08093110280931E0202C010922B
S1131F70110280911E02891749F0109215020E94E5
S1131F803B0980911E0281110E945C0C1092850015
S1131F901092840084E080938100B19A7894FF9138
S1131FA0EF91BF91AF919F918F917F916F915F91CD
S1131FB04F913F912F910F900FBE0F901F90189546
S1131FC0CF93DF93CDB7DEB765970FB6F894DEBF36
S1131FD00FBECDBF5D9A0E944A090E944C09892B0D
S1131FE011F00E94980B0E940C0F0E940F0F0E9488
S1131FF080020E94790D0E94F10E0E9439090E940C
S11320003B0984E10E9446090E945C0C78940F2EDF
S1132010F4E16F2EF02D8E010B5E1F4F0F2EF3E0B7
S11320204F2EF02D512CA12CB12C772473940F2E0C
S1132030F7E9CF2EF1E0DF2EF02D8DB69EB68DB7E9
S11320409EB7845691090FB6F8949EBF0FBE8DBFFC
S1132050EDB6FEB6E1E0F0E0EE0EFF1E6D8AFE0185
S113206031961192E017F107E1F780911E02409139
S1132070210220911D0290911102F0E44F9FA001D2
S1132080112460E2269F90011124242B8795882730
S11320908795282BE0E19E9FC0011124822BF70134
S11320A0808380911C02818380911B0282838091B2
S11320B021028823E1F033969501D901AC5DBD4F2F
S11320C08C9181932F5F3F4F20353105B1F780917B
S11320D01D02882379F080911202F701ED5AFF4F17
S11320E080830F2EF4E53F2EF02D272C08C0342CCE
S11320F0252C05C00F2EF3E53F2EF02D272CB8011B
S1132100CE0101960E942C0E882321F0813009F023
S113211048C065C0632DC7010E94920D811111C092
S1132120F1E02F120EC050922102F7013496C5013E
S1132130DC01AC5DBD4F1C92119201968035910576
S1132140B9F78B810E9446098C8180931F028D818F
S1132150809318028E8180931702898180931A02DA
S11321608A818093190280911402873028F4853083
S113217038F48330A0F10CC08950823080F503C05C
S11321800E948E022CC00E948E020E945C0C27C00A
S11321900E948E020E94500C892B09F10E945C0C53
S11321A01EC01F928F93DF92CF92FF92EF920E94F4
S11321B05811872D0E940A0765E08AE092E00E9488
S11321C02B0782E00E940A07672D8E2D9F2D0E9407
S11321D02B070F900F900F900F900F900F90882D5A
S11321E0992D0FB6F8949EBF0FBE8DBF26CF97FBD7
S11321F0072E16F4009407D077FD09D00E944411ED
S113220007FC05D03EF4909581959F4F08957095F5
S113221061957F4F0895A1E21A2EAA1BBB1BFD01F5
S11322200DC0AA1FBB1FEE1FFF1FA217B307E407B1
S1132230F50720F0A21BB30BE40BF50B661F771F09
S1132240881F991F1A9469F76095709580959095E9
S11322509B01AC01BD01CF010895A29FB001B39FC2
S1132260C001A39F01D0B29F700D811D1124911D47
S113227008950E942D11A59F900DB49F900DA49FC9
S1132280800D911D11240895AA1BBB1B51E107C0A9
S1132290AA1FBB1FA617B70710F0A61BB70B881FF2
S11322A0991F5A95A9F780959095BC01CD01089581
S11322B0AEE0B0E0EEE5F1E10C9436140D891E8930
S11322C086E08C831A8309838FEF9FE79E838D8337
S11322D0CE014996AC016F89788DCE0101960E949A
S11322E07A11EF81F885E00FF11F10822E96E4E059
S11322F00C945214ACE0B0E0E0E8F1E10C94281442
S11323007C016B018A01FC0117821682838181FFA3
S1132310C6C188248394912C8C0E9D1EF701938151
S1132320F60193FD859193FF81916F01882309F450
S1132330B2C1853239F493FD859193FF81916F0188
S1132340853229F4B70190E00E949E13E7CF512C07
S1132350312C20E02032A8F48B3261F028F4803252
S113236051F0833271F40BC08D3239F0803349F46B
S1132370216028C02260246025C0286023C0206119
S113238021C027FD27C0382F30533A3078F426FF78
S113239006C0FAE05F9E300D1124532E13C08AE06C
S11323A0389E300D1124332E20620CC08E3221F45D
S11323B026FD71C1206406C08C3611F4206802C069
S11323C0883641F4F60193FD859193FF81916F0165
S11323D08111C0CF982F9554933018F090529330B8
S11323E028F40C5F1F4FFFE3F9830DC0833631F0EF
S11323F0833771F0833509F05EC023C0F801808112
S113240089830E5F1F4F44244394512C540115C0FB
S11324103801F2E06F0E711CF801A080B18026FF34
S113242003C0652D70E002C06FEF7FEFC5012C87FC
S11324300E9493132C0183012C856FE7262E222200
S113244018C03801F2E06F0E711CF801A080B18051
S113245026FF03C0652D70E002C06FEF7FEFC5015A
S11324602C870E9488132C012C8550E8252E222AC3
S1132470830123FC1CC006C0B70180E290E00E94E7
S11324809E133A94832D90E048165906A8F30FC082
S1132490F50127FC859127FE81915F01B70190E04A
S11324A00E949E1331103A94F1E04F1A51084114DE
S11324B0510471F7EDC0843611F0893641F5F80105
S11324C027FF07C060817181828193810C5F1F4F58
S11324D008C060817181882777FD8095982F0E5FF1
S11324E01F4F4FE6B42EB22297FF09C090958095F6
S11324F0709561957F4F8F4F9F4FF0E8BF2A2AE078
S113250030E0A4010E94CA13A82EA81843C085373E
S113251031F43FEEB32EB2222AE030E024C099EF2A
S1132520B92EB2228F36B9F020F4883509F0B3C041
S11325300DC0803721F0883709F0ADC002C020E11A
S1132540B22AB4FE0BC084E0B82A08C024FF09C034
S1132550E6E0BE2A06C028E030E005C020E130E015
S113256002C020E132E0F801B7FE07C0608171814A
S1132570828193810C5F1F4F06C06081718180E06E
S113258090E00E5F1F4FA4010E94CA13A82EA81842
S1132590FFE7BF22B6FE0BC02B2D2E7FA51450F4EF
S11325A0B4FE0AC0B2FC08C02B2D2E7E05C07A2CC6
S11325B02B2D03C07A2C01C0752C24FF0DC0FE0105
S11325C0EA0DF11D8081803311F4297E09C022FFB8
S11325D006C07394739404C0822F867809F07394B0
S11325E023FD14C020FF0FC05A2C731460F4530C45
S11325F05718732C08C0B70180E290E02C870E9422
S11326009E1373942C857314B0F304C0731410F4E4
S1132610371801C0312C24FF12C0B70180E390E0C9
S11326202C870E949E132C8522FF1EC021FF03C00D
S113263088E590E002C088E790E0B7010CC0822FE3
S1132640867891F021FD02C080E201C08BE227FD73
S11326508DE2B70190E00E949E1306C0B70180E3AB
S113266090E00E949E135A94A514C0F3AA94F40116
S1132670EA0DF11DB701808190E00E949E13A11024
S1132680F5CF06C0B70180E290E00E949E133A9411
S11326903110F8CF43CEF7012681378102C02FEFE6
S11326A03FEFC9012C96E2E10C944414DC01CB0108
S11326B0FC01F999FECF06C0F2BDE1BDF89A31964E
S11326C000B40D9241505040B8F70895DC01A40FB6
S11326D0B51F4150504048F0CB01840F951F2E91F7
S11326E00E94771341505040D0F70895262FF9994E
S11326F0FECF92BD81BDF89A019700B4021639F05D
S11327001FBA20BD0FB6F894FA9AF99A0FBE08952D
S1132710FC010590615070400110D8F780959095A8
S11327208E0F9F1F0895FC016150704001900110AD
S1132730D8F7809590958E0F9F1F08950F931F9340
S1132740CF93DF938C01EB018B8181FD03C00FEFED
S11327501FEF1AC082FF0DC02E813F818C819D81A5
S11327602817390764F4E881F9810193F983E88330
S113277006C0E885F985802F0995892B41F78E815C
S11327809F8101969F838E83C801DF91CF911F9112
S11327900F910895FA01AA27283051F1203181F1CF
S11327A0E8946F936E7F6E5F7F4F8F4F9F4FAF4F55
S11327B0B1E03ED0B4E03CD0670F781F891F9A1F68
S11327C0A11D680F791F8A1F911DA11D6A0F711D1C
S11327D0811D911DA11D20D009F468943F912AE028
S11327E0269F11243019305D3193DEF6CF01089510
S11327F0462F4770405D4193B3E00FD0C9F7F6CF41
S1132800462F4F70405D4A3318F0495D31FD405208
S1132810419302D0A9F7EACFB4E0A695979587959E
S113282077956795BA95C9F700976105710508957D
S11328309B01AC010A2E0694579547953795279529
S1132840BA95C9F7620F731F841F951FA01D0895C1
S11328502F923F924F925F926F927F928F929F92AC
S1132860AF92BF92CF92DF92EF92FF920F931F939A
S1132870CF93DF93CDB7DEB7CA1BDB0B0FB6F8944B
S1132880DEBF0FBECDBF09942A88398848885F848B
S11328906E847D848C849B84AA84B984C884DF80FC
S11328A0EE80FD800C811B81AA81B981CE0FD11DE0
S11328B00FB6F894DEBF0FBECDBFED010895F894B6
S10528C0FFCF44
S11328C2FF6E6E6E271E5738462957062321593547
S11328D21B1D1F6153574950452043415244005028
S11328E2524943452025642E253032640054494D13
S11328F2452025643A253032640050524553532012
S1132902544F2043414E43454C00505249434520C5
S113291225643A253032640043617264204465635D
S11329226C696E656400507265737320746F2072F3
S1132932657472790057616974696E6720666F7293
S1132942206875620044697374616E63652C204D5E
S1132952696E0025642C202564004361726420445E
S11329626174610047657474696E67204944005656
S11329726572696679696E67204944004944205644
S1132982657269666965640043686F6F7365204D9B
S11329926F646500556C747261736F6E6963205461
S11329A265737400436172642052656164657220C8
S11329B2546573740041737369676E20494400441B
S11329C26973706C6179204944004572726F7200B8
S9030000FC
